:100000000C9420040C9448040C9448040C94480468
:100010000C9448040C9448040C9448040C94480430
:100020000C9448040C9448040C94900A0C94FF0A15
:100030000C9448040C9448040C9448040C94480410
:100040000C9448040C94420E0C9448040C944804FC
:100050000C9448040C9448040C9448040C94310DFE
:100060000C9448040C9448040C9448040C944804E0
:100070000C9448040C9448040C9448040C944804D0
:100080000C947B0D0C9448040C9448040C94480484
:100090000C9448040C9448040C9448040C944804B0
:1000A0000C9448040C9448040C944804000000008C
:1000B000003E5B4F5B3E3E6B4F6B3E1C3E7C3E1CEE
:1000C000183C7E3C181C577D571C1C5E7F5E1C0034
:1000D000183C1800FFE7C3E7FF0018241800FFE7EB
:1000E000DBE7FF30483A060E2629792926407F05AE
:1000F0000507407F05253F5A3CE73C5A7F3E1C1CC4
:1001000008081C1C3E7F14227F22145F5F005F5F83
:1001100006097F017F006689956A6060606060946F
:10012000A2FFA29408047E040810207E2010080874
:100130002A1C08081C2A08081E101010100C1E0C7F
:100140001E0C30383E3830060E3E0E060000000011
:100150000000005F00000007000700147F147F14F8
:10016000242A7F2A1223130864623649562050003D
:1001700008070300001C2241000041221C002A1C29
:100180007F1C2A08083E0808008070300008080814
:100190000808000060600020100804023E51494534
:1001A0003E00427F400072494949462141494D3352
:1001B0001814127F1027454545393C4A49493141B9
:1001C000211109073649494936464949291E000087
:1001D00014000000403400000008142241141414DC
:1001E0001414004122140802015909063E415D59C8
:1001F0004E7C1211127C7F494949363E41414122D1
:100200007F4141413E7F494949417F090909013EFA
:10021000414151737F0808087F00417F4100204021
:10022000413F017F081422417F404040407F021C33
:10023000027F7F0408107F3E4141413E7F0909094A
:10024000063E4151215E7F09192946264949493216
:1002500003017F01033F4040403F1F2040201F3FDC
:100260004038403F63140814630304780403615961
:10027000494D43007F4141410204081020004141A3
:10028000417F04020102044040404040000307084F
:100290000020545478407F2844443838444444284B
:1002A000384444287F385454541800087E090218F2
:1002B000A4A49C787F0804047800447D400020407A
:1002C000403D007F1028440000417F40007C0478BE
:1002D00004787C080404783844444438FC18242406
:1002E0001818242418FC7C08040408485454542486
:1002F00004043F44243C4040207C1C2040201C3C03
:100300004030403C44281028444C9090907C4464F9
:10031000544C44000836410000007700000041368C
:10032000080002010204023C2623263C1EA1A16112
:10033000123A4040207A3854545559215555794144
:100340002154547841215554784020545579400C1B
:100350001E527212395555555939545454593955FC
:100360005454580000457C410002457D420001453F
:100370007C40F0292429F0F0282528F07C545545AC
:10038000002054547C547C0A097F4932494949323F
:100390003248484832324A4848303A4141217A3A54
:1003A00042402078009DA0A07D39444444393D401E
:1003B00040403D3C24FF2424487E4943662B2FFCCB
:1003C0002F2BFF0929F620C0887E09032054547979
:1003D000410000447D413048484A32384040227A4A
:1003E000007A0A0A727D0D19317D2629292F2826C7
:1003F0002929292630484D402038080808080808CF
:100400000808382F10C8ACBA2F102834FA00007B27
:10041000000008142A142222142A1408950022002D
:1004200095AA005500AAAA55AA55AA000000FF00E7
:10043000101010FF00141414FF001010FF00FF1024
:1004400010F010F0141414FC001414F700FF000056
:10045000FF00FF1414F404FC141417101F10101FD5
:10046000101F1414141F00101010F0000000001FC3
:10047000101010101F10101010F010000000FF10CE
:100480001010101010101010FF10000000FF1400CA
:1004900000FF00FF00001F10170000FC04F41414FC
:1004A0001710171414F404F40000FF00F7141414C8
:1004B00014141414F700F7141414171410101F1048
:1004C0001F141414F4141010F010F000001F101F6B
:1004D0000000001F14000000FC140000F010F010D9
:1004E00010FF10FF141414FF141010101F00000050
:1004F00000F010FFFFFFFFFFF0F0F0F0F0FFFFFF54
:100500000000000000FFFF0F0F0F0F0F38444438AA
:10051000447C2A2A3E147E02020606027E027E02E5
:1005200063554941633844443C04407E201E200604
:10053000027E020299A5E7A5991C2A492A1C4C7241
:1005400001724C304A4D4D303048784830BC625AC8
:10055000463D3E494949007E0101017E2A2A2A2A58
:100560002A44445F444440514A444040444A514034
:100570000000FF0103E080FF000008086B6B0836F5
:1005800012362436060F090F060000181800000066
:100590001010003040FF0101001F01011E00191D55
:1005A0001712003C3C3C3C00000000000601150115
:1005B000260137014A015D01720188019F01B801DE
:1005C000D201EE010B022A024B026E029302BA0222
:1005D000E40210033F037003A403DC031704550473
:1005E0009704DD0427057505C80520067D06E0068D
:1005F0004907B8072D08A9082D09B9094D0AEA0AC3
:10060000900B400CFA0CC00D910E6F0F5A10531145
:100610005B1272139A14D41520178018F519801BD9
:10062000231DDE1EB420A622B524E4263429A72BE0
:10063000402E0031EA330037453ABC3D68414C4515
:100640006B49C84D68524F57805C006210111213FD
:10065000151617181A1C1D1F21232527292C2E318A
:1006600034373A3E4145494E52575C62686E757B5D
:10067000838B939CA5AFB9C4D0DCE9F7F0F89C8ECE
:100680008783878E9CF8F00000FEFF0303030303BB
:10069000070EFCF80000FEFF0303030303070EFC34
:1006A000F80000FFFF00000000000000FFFF000056
:1006B000FEFF8383838383C7EE7C380000F8FC0E43
:1006C00007030303070EFCF800003F7FE0C08080B3
:1006D000C0E07F3FFFFF01010101010101FFFF00B9
:1006E00000FFFF0C0C0C0C1C3E77E3C100007FFFE9
:1006F000C0C0C0C0C0E0703F1F00001F3F70E0C01E
:10070000C0C0E0703F1F00007FFFC1C1C1C1C1E395
:10071000773E1C00001F3F70E0C0C0C0E0703F1F6C
:10072000000000000001FFFF010000008D14A1C8BF
:1007300081CFD9F102AF140213021202150207028F
:10074000080204010C0106010048656C6C6F2C2046
:10075000776F726C64210000000000240027002ADB
:10076000002D0030000000000200090F000003040B
:1007700001000C000000000000000000000000006C
:1007800000000000080B0002020200000904000043
:1007900001020200000524001001052401010104EA
:1007A0002402060524060001070581031000400904
:1007B000040100020A0000000705020240000007D1
:1007C0000583024000000403090412010002EF0245
:1007D000014041233680000101020301417264752A
:1007E000696E6F204C4C430041425031313036002D
:1007F0000408020110408040102040804080080220
:100800000401804020100201108010204040200090
:10081000000000250028002B002E003100040404F5
:100820000404030405020202020403020202020697
:100830000606060606040402020204040301AD0EC5
:1008400011241FBECFEFDAE0DEBFCDBF11E0A0E084
:10085000B1E0E6EAF3E202C005900D92A233B107DF
:10086000D9F725E0A2E3B1E001C01D92A63DB20791
:10087000E1F714E0C0E2D4E004C02197FE010E9439
:10088000CB11CF31D107C9F70E94E00E0C94D111E2
:100890000C94000090E0E0EDF1E091119FEF8FEFFC
:1008A00091939193919391938150D0F70895E1E0C2
:1008B000F0E00E946C04319728F068517C4F8F4F14
:1008C0009F4FF9CFAB01FC010E946C0464177507C0
:1008D0008E079F07C8F30895ABE4B1E02FB7F894F3
:1008E0007D918D919C9166B52FBFA89B05C06F3FF0
:1008F00018F47F5F8F4F9F4F22E0660F771F881F8E
:10090000991F2A95D1F70895FC01809164018823ED
:1009100011F13FB7F89482E08093E9002091F20052
:10092000822F90E01816190614F481E090E08823D5
:1009300039F0289844E6409363014091F1004083E8
:10094000222339F02091F200211103C02BE62093DD
:10095000E8003FBF08958FEF9FEF08952FB7F894F9
:1009600083E08093E9009091E800892F807295FFE1
:1009700004C09091F20080E4891B2FBF08958091FC
:100980005B0181110DC082E08093570184E0809368
:10099000580110925A011092590181E080935B0135
:1009A00087E591E008958F929F92AF92BF92CF9288
:1009B000DF92EF92FF920F931F93CF93DF936C011F
:1009C0007B018A0180910B01882309F458C0809132
:1009D0006401882309F453C08091560180FF05C04B
:1009E0008091E00082608093E000E801B12C8AEF02
:1009F000A82E93E0892E2AE3922E209711F4BB2093
:100A0000B9F10E94AE04811106C0AA94AA20B9F1DE
:100A10000E945704F2CF8C171D0611F00CF08C2F9A
:100A20009FB7F8948092E9002091E80025FD02C06C
:100A30009FBFE3CF282F30E0C21BD30BF7018150BB
:100A400020F041914093F100FACFE20EF31EBB205B
:100A500021F09092E800B12CEBCF8091E80085FD69
:100A6000E7CF9092E800BB24B394209709F3F3CF2B
:100A70005D9884E680935501101611063CF081E0E4
:100A800090E0F6019383828310E000E0C801DF91DB
:100A9000CF911F910F91FF90EF90DF90CF90BF907B
:100AA000AF909F908F900895CF93DF931F92CDB713
:100AB000DEB76983DC01ED91FC910280F381E02DCA
:100AC00041E050E0BE016F5F7F4F09950F90DF91CD
:100AD000CF91089583E08093E9008091F20088230C
:100AE00019F08AE38093E80008950E94AE0490E034
:100AF0000895CF93DF931F92CDB7DEB7FC018485B5
:100B0000958597FD08C02FEF3FEF358724870F901D
:100B1000DF91CF910895CE0101960E948404019740
:100B200019F4898190E0F3CF8FEF9FEFF0CF0F930F
:100B30001F93CF93DF931F92CDB7DEB78C01FC01DB
:100B40008485958597FF0BC0CE0101960E94840491
:100B5000019771F4898190E0F80195878487F80105
:100B6000848595850F90DF91CF911F910F91089506
:100B70008FEF9FEFF1CFFC018485958597FD0BC02A
:100B80009FB7F89482E08093E9008091F2009FBFC4
:100B900090E0019608959FB7F89482E08093E90071
:100BA0008091F2009FBF90E00895409151015091D3
:100BB000520120914F013091500142175307B4F474
:100BC0009091E8009570E1F39091E80092FD19C0D2
:100BD0008093F100809151019091520101968F73A1
:100BE0009927892B19F48EEF8093E80080915101A9
:100BF000909152010196909352018093510181E0AE
:100C0000089580E00895EF92FF920F931F93CF9382
:100C1000DF93F82E192FE62E042F81E0860F880F20
:100C20000E94D50583E00E94D505CF2DD12FEC0E73
:100C3000FD2EF11CCE15DF05B9F007FF13C0FE0134
:100C400084910E94D505182F80E00E94D50581234C
:100C500021968111EFCFDF91CF911F910F91FF90DE
:100C6000EF9008958881EDCF81E0F5CFDF92EF928C
:100C7000FF920F931F93CF93DF93D82E8A01EB013E
:100C80007B01E40EF51ECE15DF0559F0D7FE12C02C
:100C9000FE0184910E94D50521968111F4CF0FEFBA
:100CA0001FEFC801DF91CF911F910F91FF90EF903F
:100CB000DF9008958881EECF0F931F93CF93DF933A
:100CC0001F92CDB7DEB782E0898342E450E064E84A
:100CD00077E080E80E9436060E94BF04DC0112968D
:100CE0000D911C910115110589F0D801ED91FC9130
:100CF0000280F381E02DBE016F5F7F4FC80109952F
:100D000097FD04C0F80100851185ECCF89810F9013
:100D1000DF91CF911F910F910895615030F0209194
:100D2000F100FC0120830196F8CF289884E6809397
:100D300063010895282F30E0F901EB59F84F9491A1
:100D4000F901E051F84F8491235E374FF901249166
:100D5000222309F430C09923E9F091509F30D0F458
:100D6000E92FF0E0EA54F94F0C94CB11E406E806C1
:100D7000C506DC06E006CA06CA06CA06EB06F10688
:100D8000F506F906FF06CA060307909180009F77D3
:100D900090938000E22FF0E0EE0FFF1FE15FF74F2E
:100DA000A591B4919FB7F894EC91611132C08095F0
:100DB0008E238C939FBF0895909180009F7DE8CFF4
:100DC00090918000977FE4CF94B59F7794BDE2CF58
:100DD00094B59F7DFBCF909190009F77909390006A
:100DE000D9CF909190009F7DF9CF90919000977FFF
:100DF000F5CF9091C0009F779093C000CBCF90919A
:100E0000C0009F7DF9CF9091C200977F9093C20060
:100E1000C1CF8E2BCECFCF93DF9390E0FC01E0517A
:100E2000F84F2491835E974FFC0184918823C9F089
:100E300090E0880F991FFC01E95AF84FA591B491F1
:100E4000FC01E15FF74FC591D49161110DC09FB7CF
:100E5000F8948C91209582238C9388812823288371
:100E60009FBFDF91CF910895623051F49FB7F894FE
:100E70003C91822F809583238C93E8812E2BEFCF9A
:100E80008FB7F894EC912E2B2C938FBFEACF1F9342
:100E9000CF93DF93182FEB0161E00E940B0720979F
:100EA00039F460E0812FDF91CF911F910C949A0665
:100EB000CF3FD10511F461E0F5CFE12FF0E0EB5920
:100EC000F84FE491E150EF3008F07FC0F0E0E559D1
:100ED000F84F0C94CB117A078207870791079B077D
:100EE000E507E507E507A507AF07B907C307D0077B
:100EF000E507D80784B5806884BDC7BDDF91CF9171
:100F00001F91089584B5806284BDC8BDF7CF8091DC
:100F10008000806880938000D0938900C09388000F
:100F2000EDCF80918000806280938000D0938B0011
:100F3000C0938A00E3CF8091800088608093800016
:100F4000D0938D00C0938C00D9CF809190008068A1
:100F500080939000D0939900C0939800CFCF809158
:100F60009000806280939000D0939B00C0939A0081
:100F7000C5CF80919000886080939000D0939D00B1
:100F8000C0939C00BBCF8091C00080688093C0005C
:100F90008091C0008F7B8093C000C093CF00AECF04
:100FA0008091C00080628093C000C093D000A6CF23
:100FB0008091C20088608093C2008091C2008B7FC4
:100FC0008093C200C093D20099CFC038D1050CF0F5
:100FD00072CF67CFAB01FC010E946C0441505109F4
:100FE000E109F10928F068517C4F8F4F9F4FF6CFF0
:100FF000AB01FC010E946C04641775078E079F0704
:10100000C8F308950895AF92BF92CF92DF92EF9206
:10101000FF920F931F93CF93DF936C017B018B01A2
:10102000040F151FEB015E01AE18BF08C017D107F2
:1010300059F06991D601ED91FC910190F081E02D7C
:10104000C6010995892B79F7C501DF91CF911F91D1
:101050000F91FF90EF90DF90CF90BF90AF900895E9
:10106000E0914301F091440190818091420180958B
:101070008923808308950F931F93CF93DF93182FB5
:10108000D92FC0EB00E10E943008CEBD0DB407FEA1
:10109000FDCF0EBD0DB407FEFDCFE0914301F091F1
:1010A0004401808190914201892B8083E12FFD2FA3
:1010B000CF0180589F4F21912EBD0DB407FEFDCF6B
:1010C0008E179F07C1F7182FD92FCF5FC83BD9F6CE
:1010D000DF91CF911F910F910895CF92DF92EF9200
:1010E000FF920F931F93CF93E82FF0E0E45CF74F4C
:1010F000C491E62FF0E0603398F5E45BF94FE4919A
:101100000E2F10E0F12CE12C60E074E284EF90E00F
:10111000A70198010E947B11215031094109510911
:1011200091E02115310581E0480751056CF060E937
:1011300070ED83E090E0A70198010E947B1121509F
:1011400031094109510993E0C13089F0C330F9F008
:10115000CF911F910F91FF90EF90DF90CF90089566
:10116000EE0FFF1FE45BFA4F05911491CBCF8091F6
:101170008100887F892B80938100309389002093A0
:10118000880080916F00826080936F00E1CF809132
:101190009100887F892B8093910030939900209350
:1011A000980010933F0100933E0181E080933D0140
:1011B00080917100826080937100CACFE82FF0E0C7
:1011C000E45CF74FE491E13019F0E33089F00895E1
:1011D00080916F008D7F80936F0080916801E09116
:1011E0006901F0916A019081809589238083089537
:1011F00010923D0180916501E0916601F0916701D7
:10120000F2CFCF93DF9390916B01923081F0C82F92
:10121000E92FF0E0E45CF74FD4919F5F90936B016E
:1012200061E00E940B07D13029F0D33049F1DF9102
:10123000CF910895109280001092810080918100DA
:10124000886080938100809181008160809381001B
:101250008C2F90E0FC01E35EF74FE491F0E0EE0F9D
:10126000FF1FE15FF74F2591349130936A0120937E
:1012700069018051984FFC01849180936801D7CF18
:10128000109290001092910080919100886080935C
:101290009100809191008160809391008C2F90E06B
:1012A000FC01E35EF74FE491F0E0EE0FFF1FE15F1A
:1012B000F74F259134913093670120936601805157
:1012C000984FFC0184918093650180916B01882384
:1012D00021F06CE380E00E946D0880E0DF91CF9107
:1012E0000C94DE082F923F924F925F926F927F9202
:1012F0008F929F92AF92BF92CF92DF92EF92FF9226
:101300000F931F93CF93DF9300D000D0CDB7DEB7FC
:101310006A3069F5FC01EA5EFB4FDC01A85EBB4F59
:101320002C9148E0249F9001112440815181240F89
:10133000351F318320838C5E9B4FDC011D921C92F4
:101340000F900F900F900F90DF91CF911F910F9101
:10135000FF90EF90DF90CF90BF90AF909F908F90D5
:101360007F906F905F904F903F902F9008956D30D9
:1013700039F3FC01E85EFB4FB08034974081518126
:101380000B2D10E0403851050CF08DC03296808056
:101390009180B0E48B1691040CF085C075E09A0141
:1013A000B79E200D311D1124121613060CF07BC0C0
:1013B0009801E3E0220F331FEA95E1F7280D391D6C
:1013C000121613060CF06FC0679FB00111245C83E6
:1013D0004B83B0E0A0E0FB01E455FF4F1F01E0E0CC
:1013E000A53021F0F101EA0FFB1FE491740138E010
:1013F000A32E4E2E512CE1707E2E6B817C81262FE8
:10140000FB812F1B2B15E0F51A82198229812B15E0
:10141000A0F56038710538F5C980DA80CE0CDF1C84
:1014200030E4C316D104F8F42E0D322F36953695DC
:10143000369520E8329FF0011124E60FF71F37E0C0
:10144000C322DD2421E030E002C0220F331FCA9402
:10145000E2F769019F01280F391FF901648877209D
:1014600049F0C628C48A29813A812F5F3F4F3A83C9
:101470002983CCCFC094C620F5CF6F5F7F4FBFCFFD
:1014800055944794E42DAA94E00EF11EA110B1CF1B
:1014900011962B813C81200F311F3C832B83A6307A
:1014A000B10509F09CCF36E0B39E400D511D1124CB
:1014B000FC01EC5EFB4F5183408335962081222353
:1014C00009F43ECF6AEF60039001619F300D112453
:1014D00020583F4F241735070CF032CFDC01ED9137
:1014E000FC910190F081E02D6AE00F900F900F9039
:1014F0000F90DF91CF911F910F91FF90EF90DF90B0
:10150000CF90BF90AF909F908F907F906F905F90A3
:101510004F903F902F900994089590E080E00895B7
:101520001F920F920FB60F9211248F939F93809169
:10153000E1009091E100937F9093E10083FF0FC061
:101540001092E90091E09093EB001092EC0092E38E
:101550009093ED001092640198E09093F00082FF68
:1015600022C093E09093E9009091F200992319F042
:101570009AE39093E80090915501992341F090915E
:101580005501915090935501911101C05D9A909130
:101590006301992341F0909163019150909363010D
:1015A000911101C0289A84FF18C08091E2008E7EBC
:1015B00081608093E2008091E1008F7E8093E10062
:1015C000809156018E7E8061809356019F918F910C
:1015D0000F900FBE0F901F90189580FFF7CF80914E
:1015E000E2008E7E80618093E2008091E1008E7E39
:1015F0008093E100809156018E7E8160E5CF1F923D
:101600000F920FB60F921124CF92DF92EF92FF92BA
:101610000F931F932F933F934F935F936F937F93FA
:101620008F939F93AF93BF93EF93FF93CF93DF93EA
:10163000CDB7DEB76C97DEBFCDBF1092E9008091C9
:10164000E80083FF25C068E0CE0145960E948D0624
:1016500082EF8093E8008D8987FF39C09091E80080
:1016600090FFFCCF982F907609F034C19E894F8966
:10167000588D2F89F88C911131C0803861F5809197
:1016800054018093F1001092F1008EEF8093E800F6
:101690006C960FB6F894DEBF0FBECDBFDF91CF9131
:1016A000FF91EF91BF91AF919F918F917F916F913A
:1016B0005F914F913F912F911F910F91FF90EF906C
:1016C000DF90CF900F900FBE0F901F9018959EEF58
:1016D0009093E800C7CF1092F100D5CF913059F424
:1016E0008111D3CF4130510581F6809154018D7F16
:1016F00080935401CACF933049F48111C6CF413051
:10170000510519F6809154018260F2CF953041F471
:101710008091E80080FFFCCF20682093E300B5CFE4
:10172000963009F0A9C00B8D1C8D22E01092E900C3
:101730001092520110925101F2122EC010925001DB
:1017400010924F010E945C061F8299E09983FA82F1
:1017500091E09E8390EA98879AEF998720915101B2
:1017600030915201275F3F4F3C832B838D83109232
:10177000E900109252011092510110935001009310
:101780004F0149E050E0BE016F5F7F4F80E00E9453
:1017900036060E945C0679CF1093500100934F01EA
:1017A0000E94BF04DC0112960D911C9101151105D8
:1017B00009F451C1D801ED91FC910480F581E02D2F
:1017C000BE016B5E7F4FC8010995009709F03EC1CD
:1017D000F80100851185EACFF3E0FF120EC08F8972
:1017E000882309F440C0823061F440E867E088EE65
:1017F00097E00E940306811148CF81E28093EB00BD
:1018000047CF813029F440E86BE08CED97E0F1CFD1
:10181000833099F70E94BF04DC011296ED90FC9092
:101820008E010F5F1F4F6801E114F10479F0D701B9
:10183000ED91FC910680F781E02DB801C701099573
:10184000080F111DF701E084F184EECFD8011C923E
:10185000F60101900020E9F73197BF016C197D096D
:1018600040E0C601C6CF66EC77E0FB01449150E052
:1018700080E80E94360609CF973009F4BECF983031
:1018800021F481E08093F10000CF993009F0FDCE82
:10189000837009F0B2CFEDE0F1E081E031E096E352
:1018A0002191222371F08093E9003093EB00DF0156
:1018B00011972C912093EC009093ED008F5F87306F
:1018C00079F78EE78093EA001092EA008F8980937F
:1018D0006401DBCE8B8D9C8D1092E9001092520139
:1018E000109251019093500180934F01898D811185
:1018F00092C08E899D89913A49F4813209F07DCF59
:1019000047E050E064E071E080E0B3CF913209F04D
:1019100074CF833269F48F89988DB0E0A0E0809312
:10192000000190930101A0930201B0930301ADCE99
:10193000803269F48091E80082FFFCCF67E084E0A8
:1019400091E00E948D068BEF8093E8009ECE82325C
:1019500009F09BCE8F8980930B01EEEFFFE7859115
:1019600094918B3F9C4D51F1E0E0F8E080910401AF
:1019700090910501A0910601B0910701803B944030
:10198000A105B105F1F480910B0180FD1AC0EE3F75
:101990008AE0F80789F587E797E79183808380914C
:1019A00060008093530188E19BE00FB6F894A895FE
:1019B000809360000FBE9093600067CEEEEFFAE078
:1019C000D5CF808191818737974709F05ECEA89562
:1019D00080916000886180936000809153018093C2
:1019E0006000EE3F2AE0F20789F08091FE0A9091B4
:1019F000FF0A9183808349CE808191818737980740
:101A000051F29093FF0A8093FE0AC5CF1092FF0A0D
:101A10001092FE0A3ACE0E94BF04DC0112960D918C
:101A20001C910115110509F4E8CED801ED91FC9146
:101A30000190F081E02DBE016B5E7F4FC8010995DA
:101A4000811123CEF80100851185EBCF18161906F8
:101A50000CF41BCED2CEF1E0FF12BECE6AEC77E0E2
:101A600004CF0F920FB68F939F93EF93FF938091C4
:101A700046018D5F8D3708F08D5780934601E7E46E
:101A8000F1E080818E4F808391819F4F918382818D
:101A90008F4F828383818F4F8383EBE4F1E08081DA
:101AA0008F5F808381818F4F818382818F4F82837B
:101AB00083818F4F83838FB18F6066991C9B8827AA
:101AC0008F3681F480914501981B963068F0E0E0F4
:101AD000F8E087E78083818388E180936000F0935A
:101AE0006000FFCF90934501FF91EF919F918F91FF
:101AF0000FBE0F9018951F920F920FB60F921124E0
:101B00002F933F934F935F936F937F938F939F9305
:101B1000AF93BF93EF93FF9380913D01882349F0EA
:101B200080916501E0916601F091670190818927BC
:101B3000808380914001882309F456C08091390147
:101B400090913A01A0913B01B0913C01892B8A2BE5
:101B50008B2B09F449C08091390190913A01A091F1
:101B60003B01B0913C010197A109B1098093390172
:101B700090933A01A0933B01B0933C01892B8A2BAF
:101B80008B2B91F5E0913701F0913801BF016F5F28
:101B90007F4F70933801609337012491922F907F8B
:101BA000822F8F70903819F40E94DE08EBCF9039A5
:101BB00081F43296F0933801E0933701FB01649190
:101BC00090916B018917F0F667FDDCCF0E946D08DC
:101BD000D9CF903E29F41092380110923701D2CF1C
:101BE000903F99F410924001FF91EF91BF91AF9116
:101BF0009F918F917F916F915F914F913F912F9125
:101C00000F900FBE0F901F90189597FDBBCF329687
:101C1000F0933801E0933701FB016491A0913E01FC
:101C2000B0913F01322F262F0E94BC116C507E4F85
:101C30008F4F9F4F28EE33E040E050E00E949A1112
:101C40002093390130933A0140933B0150933C017A
:101C50008091390190913A01A0913B01B0913C01F2
:101C6000892B8A2B8B2B09F0BFCF81E090E0A0E07D
:101C7000B0E08093390190933A01A0933B01B09377
:101C80003C01B2CF1F920F920FB60F9211248F9387
:101C90009F93AF93BF93EF93FF9380913601882377
:101CA00009F452C08091320190913301A091340126
:101CB000B0913501892B8A2B8B2BA1F19091680172
:101CC000E0916901F0916A01808189278083809188
:101CD000320190913301A0913401B0913501181671
:101CE00019061A061B069CF480913201909133016B
:101CF000A0913401B09135010197A109B1098093F8
:101D0000320190933301A0933401B0933501FF91D8
:101D1000EF91BF91AF919F918F910F900FBE0F9058
:101D20001F9018951092360180916F008D7F8093DF
:101D30006F0080916801E0916901F0916A019081E2
:101D4000809589238083E3CF90916801E0916901B8
:101D5000F0916A0180818927F5CFECE6F1E01382EA
:101D6000128288EE93E0A0E0B0E084839583A6839E
:101D7000B78387E191E0918380838FEF9FEF958711
:101D80008487ECEBF1E01382128289E291E0918387
:101D900080838CE3868380E1818710861782168694
:101DA0001786108A118A128A1092D1051092D005D6
:101DB0001092D3051092D20581E08093D405089546
:101DC000789483E084BD83E085BD81E080936E00DC
:101DD000E1E8F0E083E08083E0E881E08083E1E90E
:101DE00083E08083E0E981E08083E1EC87E0808329
:101DF000E3EC81E08083E0EC82E08083E2EC81E050
:101E00008083EAE787E080838068808310926401A2
:101E100010925401109256018091D70081608093F6
:101E2000D70080EA8093D80089B5806189BD89B5E3
:101E3000826089BD09B400FEFDCF0E9457048091E5
:101E4000D8008F7C80618093D8008091E000807FF3
:101E50008093E0008091E1008E7E8093E1008DE030
:101E60008093E200559A209ACFB7F894809141016F
:101E7000811127C0EEE2F8E08491E1E0F8E094916E
:101E8000E82FF0E0EE0FFF1FE95AF84FA591B4914B
:101E9000EC91E92321F461E081E10E949A0661E07E
:101EA00081E10E940B078CB580618CBD8CB580648C
:101EB0008CBD61E08FE00E940B0761E080E10E9431
:101EC0000B07809141018F5F80934101CFBFC6E333
:101ED000D7E0BE01FE0184916F5F7F4F2296FB0128
:101EE0006491882319F00E940B07F3CF61E086E02C
:101EF0000E949A0661E070E080E090E00E94EA07AC
:101F000060E086E00E949A066AE070E080E090E07F
:101F10000E94EA0761E086E00E949A0689E298E062
:101F2000FC012491E22FF0E0EE0FFF1FE15FF74F7D
:101F300025913491ECEFF7E02491FC018491E82F96
:101F4000F0E0EE0FFF1FE15FF74FA591B4918C9188
:101F5000E22FE095E823EC93E1E2F8E0E491F0E091
:101F6000EE0FFF1FE15FF74F85919491909344012D
:101F700080934301E4EFF7E0E491E09342018CB5F4
:101F80008C7F8CBD8DB581608DBD0E943008ECE2E8
:101F9000F7E086E397E024912EBD00000DB407FE24
:101FA000FDCF2EB531968E179F07A9F7E09143011B
:101FB000F0914401808190914201892B808380912E
:101FC00064008160809364008091640082608093EB
:101FD0006400809164008068809364008091640054
:101FE00080648093640080916500816080936500C7
:101FF0008FB18095807F669B88601C9B846087FF83
:102000001AC080E294E01EBC00000DB407FEFDCFB4
:102010002EB50197C1F770E060E08AE00E944707A3
:1020200070E060E08BE00E94470770E060E089E0CC
:102030000E944707FFCFCEEEDFEF08E010E0BE01C1
:1020400069517F4F8AE00E9447076FEF70E08BE095
:102050000E9447076FEF70E089E00E9447070E94E7
:102060004A045C2EF0EFCF170CF46EC09E01D7FF30
:1020700004C0222733272C1B3D0B27703327CE01AA
:10208000D7FD079653E0959587955A95E1F7D7FFC9
:1020900005C00197A801421B530B9A01BC0176951C
:1020A000762F66277795679564547E4FB0E0A0E061
:1020B0003801621A730A8F3F5FEF95070CF43BC03B
:1020C0007B0150E040E0FD01E458F94F5F014B0116
:1020D000F0E88F0E911C8F3F980779F0F501E40F1F
:1020E000F51FE491F0E06F01022E01C0CC0C0A94C0
:1020F000EAF7F701D0A4CD28C0A62115310599F043
:10210000F501E40FF51FE4916401C40ED51EF0E063
:102110001F01062C02C0359427940A94E2F7F601B9
:1021200030A4232820A64F5F5F4FFFEFEF1AFF0A6E
:102130004835510581F60196A85ABF4F60587F4F28
:10214000A03BB10509F0B7CF80ED91E00E943B08BC
:102150006BE170E080E090E00E94EA0720EF52120D
:1021600006C06AEF70E080E090E00E94EA072196E6
:10217000C931D10509F063CF6EEE72E080E090E0E6
:102180000E94EA076FEF70E08AE00E9447076FEF56
:1021900070E08BE00E9447076FEF70E089E00E94DB
:1021A000470785E00E9401098DE00E940109109215
:1021B000400182E090E00E947311882351F08091E9
:1021C0006400877F8093640080916500877F80939F
:1021D00065008FE08093C20182E48093C501C0E076
:1021E000D0E0BB24B39404E010E099E0E92EF12C98
:1021F0002FB7F8948091470190914801A09149012F
:10220000B0914A012FBF2091CE01222391F020915D
:10221000C601382F321B3093CF012091C30130917A
:10222000C4012F5F3F4F3093C4012093C30110922C
:10223000CE014091CA015091CB016091CC017091C7
:10224000CD0184179507A607B7079CF4481B4230B9
:1022500050F083B7817F83BF83B7816083BF889548
:1022600083B78E7F83BF209709F4C2CF0E940000FE
:10227000BFCF2091C501AC01BD01420F511D611DB1
:10228000711D4093CA015093CB016093CC017093B0
:10229000CD018093C6019093C701A093C801B0936C
:1022A000C901B092CE010E944A041093D105009357
:1022B000D005F092D305E092D20589E4C82E87E0DC
:1022C000D82EF6016491662349F08CEB91E00E94D0
:1022D0007209FFEFCF1ADF0A892B99F780ED91E0A1
:1022E0000E943B08C0CFF999FECF92BD81BDF89AFC
:1022F000992780B50895052E97FB1EF400940E943F
:10230000921157FD07D00E949A1107FC03D04EF49A
:102310000C94921150954095309521953F4F4F4F19
:102320005F4F089590958095709561957F4F8F4F81
:102330009F4F0895A1E21A2EAA1BBB1BFD010DC0E1
:10234000AA1FBB1FEE1FFF1FA217B307E407F50765
:1023500020F0A21BB30BE40BF50B661F771F881F41
:10236000991F1A9469F760957095809590959B01D7
:10237000AC01BD01CF010895A29FB001B39FC00180
:10238000A39F700D811D1124911DB29F700D811DA1
:102390001124911D0895EE0FFF1F0590F491E02D7B
:0623A0000994F894FFCF40
:1023A600FFFFFFFF00E100000000000000C1808188
:1023B600000000000000005405D30475056A05BB43
:1023C600057905970500000000720903088D0A8C3F
:0223D6000A00FB
:00000001FF
