:100000000C9495030C94BD030C94BD030C94BD0398
:100010000C94BD030C94BD030C94BD030C94BD0360
:100020000C94BD030C94BD030C94550A0C94C40AA3
:100030000C94BD030C94BD030C94BD030C94BD0340
:100040000C94BD030C94BD030C94BD030C94BD0330
:100050000C94BD030C94BD030C94BD030C940B0ACB
:100060000C94BD030C94BD030C94BD030C94BD0310
:100070000C94BD030C94BD030C94BD030C94BD0300
:100080000C94BD030C94BD030C94BD030C94BD03F0
:100090000C94BD030C94BD030C94BD030C94BD03E0
:1000A0000C94BD030C94BD030C94BD03084AD73BCC
:1000B0003BCE016E84BCBFFDC12F3D6C74319ABD37
:1000C00056833DDA3D00C77F11BED9E4BB4C3E915B
:1000D0006BAAAABE000000803F05A84CCDB2D44E4A
:1000E000B93836A9020C50B9918688083CA6AAAA4C
:1000F0002ABE000000803F0000000000003E5B4F71
:100100005B3E3E6B4F6B3E1C3E7C3E1C183C7E3C77
:10011000181C577D571C1C5E7F5E1C00183C180085
:10012000FFE7C3E7FF0018241800FFE7DBE7FF3015
:10013000483A060E2629792926407F050507407F83
:1001400005253F5A3CE73C5A7F3E1C1C08081C1CF6
:100150003E7F14227F22145F5F005F5F06097F01EC
:100160007F006689956A606060606094A2FFA294D7
:1001700008047E040810207E201008082A1C0808A5
:100180001C2A08081E101010100C1E0C1E0C3038F3
:100190003E3830060E3E0E06000000000000005FF4
:1001A00000000007000700147F147F14242A7F2A10
:1001B00012231308646236495620500008070300D2
:1001C000001C2241000041221C002A1C7F1C2A081E
:1001D000083E080800807030000808080808000081
:1001E00060600020100804023E5149453E00427FF5
:1001F000400072494949462141494D331814127F44
:100200001027454545393C4A4949314121110907E3
:100210003649494936464949291E00001400000064
:100220004034000000081422411414141414004136
:1002300022140802015909063E415D594E7C1211F3
:10024000127C7F494949363E414141227F4141412B
:100250003E7F494949417F090909013E41415173A6
:100260007F0808087F00417F41002040413F017F17
:10027000081422417F404040407F021C027F7F04DF
:1002800008107F3E4141413E7F090909063E415128
:10029000215E7F09192946264949493203017F0118
:1002A000033F4040403F1F2040201F3F4038403F19
:1002B000631408146303047804036159494D43002F
:1002C0007F4141410204081020004141417F040266
:1002D00001020440404040400003070800205454FD
:1002E00078407F28444438384444442838444428DB
:1002F0007F385454541800087E090218A4A49C782E
:100300007F0804047800447D40002040403D007F89
:100310001028440000417F40007C047804787C0869
:100320000404783844444438FC182424181824243D
:1003300018FC7C08040408485454542404043F4422
:10034000243C4040207C1C2040201C3C4030403C51
:1003500044281028444C9090907C4464544C4400B1
:100360000836410000007700000041360800020115
:100370000204023C2623263C1EA1A161123A404001
:10038000207A38545455592155557941215454787F
:1003900041215554784020545579400C1E52721218
:1003A00039555555593954545459395554545800A0
:1003B00000457C410002457D420001457C40F0291A
:1003C0002429F0F0282528F07C5455450020545469
:1003D0007C547C0A097F49324949493232484848AD
:1003E00032324A4848303A4141217A3A42402078F4
:1003F000009DA0A07D39444444393D4040403D3CEF
:1004000024FF2424487E4943662B2FFC2F2BFF0911
:1004100029F620C0887E0903205454794100004405
:100420007D413048484A32384040227A007A0A0AF0
:10043000727D0D19317D2629292F28262929292663
:1004400030484D4020380808080808080808382FA8
:1004500010C8ACBA2F102834FA00007B0000081432
:100460002A142222142A14089500220095AA005565
:1004700000AAAA55AA55AA000000FF00101010FFFC
:1004800000141414FF001010FF00FF1010F010F003
:10049000141414FC001414F700FF0000FF00FF14F4
:1004A00014F404FC141417101F10101F101F141440
:1004B000141F00101010F0000000001F101010108A
:1004C0001F10101010F010000000FF10101010107E
:1004D00010101010FF10000000FF140000FF00FFBC
:1004E00000001F10170000FC04F414141710171458
:1004F00014F404F40000FF00F7141414141414147A
:10050000F700F7141414171410101F101F141414EC
:10051000F4141010F010F000001F101F0000001F56
:1005200014000000FC140000F010F01010FF10FF89
:10053000141414FF141010101F00000000F010FF1E
:10054000FFFFFFFFF0F0F0F0F0FFFFFF0000000002
:1005500000FFFF0F0F0F0F0F38444438447C2A2A46
:100560003E147E02020606027E027E026355494167
:10057000633844443C04407E201E2006027E020272
:1005800099A5E7A5991C2A492A1C4C7201724C3086
:100590004A4D4D303048784830BC625A463D3E495D
:1005A0004949007E0101017E2A2A2A2A2A44445F01
:1005B000444440514A444040444A51400000FF01F5
:1005C00003E080FF000008086B6B08361236243603
:1005D000060F090F06000018180000001010003068
:1005E00040FF0101001F01011E00191D1712003CF0
:1005F0003C3C3C0000000000080B0002020200002E
:100600000904000001020200000524001001052475
:1006100001010104240206052406000107058103E7
:1006200010004009040100020A0000000705020250
:100630004000000705830240000004030904120182
:100640000002EF0201404123368000010102030154
:1006500041726475696E6F204C4C430041424C31CD
:1006600033303900F0F89C8E8783878E9CF8F00039
:1006700000FEFF0303030303070EFCF80000FEFF68
:100680000303030303070EFCF80000FFFF00000054
:1006900000000000FFFF0000FEFF8383838383C709
:1006A000EE7C380000F8FC0E07030303070EFCF88D
:1006B00000003F7FE0C08080C0E07F3FFFFF01017E
:1006C0000101010101FFFF0000FFFF0C0C0C0C1CDD
:1006D0003E77E3C100007FFFC0C0C0C0C0E0703FF4
:1006E0001F00001F3F70E0C0C0C0E0703F1F00004F
:1006F0007FFFC1C1C1C1C1E3773E1C00001F3F7035
:10070000E0C0C0C0E0703F1F000000000001FFFF1C
:1007100001000000D5F0E3E3A1C881CFD9F1AF20FB
:10072000000505060F1E0F06290D11241FBECFEF71
:10073000DAE0DEBFCDBF11E0A0E0B1E0E4E8F7E32E
:1007400002C005900D92AA39B107D9F728E0AAE9AD
:10075000B1E001C01D92A234B207E1F713E0C5E990
:10076000D3E004C02197FE010E94BA1BC439D1070F
:10077000C9F70E94460D0C94C01B0C940000EEEECD
:10078000F3E0A0E0B8E000800EBC8111012C1197CD
:10079000A0FDFDCF0192B9F70DB40895480F592F70
:1007A000511D1416150684F5803891056CF597FFD8
:1007B00002C090E080E04138510514F040E850E07C
:1007C000481BFB01E770FF2721E001C0220FEA95DB
:1007D000EAF777FF02C0695F7F4FFB0133E0F595D1
:1007E000E7953A95E1F7F695FE2FEE27F795E79511
:1007F000E80FF91FE251FC4F415030F08191DF01C9
:100800001197822B8C93F8CF08958F929F92AF927D
:10081000BF92CF92DF92EF92FF920F931F93CF93ED
:10082000DF93AC01E1E2F7E09491E2E2F7E0E491DA
:10083000092F10E09801240F351F121613060CF033
:1008400070C0403851050CF06CC0AA27BB27A41B10
:10085000B50B57FD02C0B0E0A0E02038310514F020
:1008600090E8941B9A1BEB0183E0D595C7958A9578
:10087000E1F73C2F21E08E2F877009F420E0E69508
:10088000E695E6952E0FFE01E20FF11D399714F063
:1008900028E02C1B862F8770BE017695762F662761
:1008A00077956795460F571F4A0F5B1FAD5DB84F91
:1008B000C82E082E000CDD08632F6C1B621788F50C
:1008C000BA0162517C4FF12CE12CE91620F5FD01B3
:1008D000EE0DFF1DE491F0E04F010C2C02C0880CDE
:1008E000991C0A94E2F737FD04C0FB01B080B828D8
:1008F000B082882351F0373044F45B01F0E8AF0E4A
:10090000B11CF501808098289082FFEFEF1AFF0A52
:100910006F5F7F4FDACFA00FB11F40585F4F3F5F2F
:10092000CBCFDF91CF911F910F91FF90EF90DF9090
:10093000CF90BF90AF909F908F900895FC018091D1
:10094000ED03882311F13FB7F89482E08093E9002A
:100950002091F200822F90E01816190614F481E01D
:1009600090E0882339F0289844E64093EC034091C6
:10097000F1004083222339F02091F200211103C0BD
:100980002BE62093E8003FBF08958FEF9FEF089577
:100990002FB7F89483E08093E9009091E800892FC5
:1009A000807295FF04C09091F20080E4891B2FBFF4
:1009B00008958091E40381110DC082E08093E003EB
:1009C00084E08093E1031092E3031092E20381E05C
:1009D0008093E40380EE93E00895FC010E940105FA
:1009E000319728F068517C4F8F4F9F4FF9CFAB0163
:1009F000FC010E940105641775078E079F07C8F365
:100A00000895ACEDB3E02FB7F8947D918D919C9152
:100A100066B52FBFA89B05C06F3F18F47F5F8F4F4F
:100A20009F4F22E0660F771F881F991F2A95D1F7E5
:100A3000089540919C0150919D0120919A0130911F
:100A40009B0142175307B4F49091E8009570E1F3CD
:100A50009091E80092FD19C08093F10080919C0173
:100A600090919D0101968F739927892B19F48EEF30
:100A70008093E80080919C0190919D010196909354
:100A80009D0180939C0181E0089580E00895DF92AC
:100A9000EF92FF920F931F93CF93DF93D82E8A018B
:100AA000EB017B01E40EF51ECE15DF0559F0D7FEF4
:100AB00012C0FE0184910E94190521968111F4CF84
:100AC0000FEF1FEFC801DF91CF911F910F91FF90A2
:100AD000EF90DF9008958881EECF0F931F93CF930F
:100AE000DF931F92CDB7DEB782E0898342E450E006
:100AF00068EF75E080E80E9447050E94D904DC0198
:100B000012960D911C910115110589F0D801ED91F6
:100B1000FC910280F381E02DBE016F5F7F4FC80121
:100B2000099597FD04C0F80100851185ECCF8981F6
:100B30000F90DF91CF911F910F910895615030F088
:100B40002091F100FC0120830196F8CF289884E6DB
:100B50008093EC030895AF92BF92CF92DF92EF9211
:100B6000FF920F931F93CF93DF936C017B018B0157
:100B7000040F151FEB015E01AE18BF08C017D107A7
:100B800059F06991D601ED91FC910190F081E02D31
:100B9000C6010995892B79F7C501DF91CF911F9186
:100BA0000F91FF90EF90DF90CF90BF90AF9008959E
:100BB0008F929F92AF92BF92CF92DF92EF92FF926D
:100BC0000F931F93CF93DF936C017B018A01809178
:100BD0000B01882309F45AC08091ED03882309F49E
:100BE00055C08091A00180FF05C08091E000826027
:100BF0008093E000E801B12C8AEFA82E93E0892EC3
:100C00002AE3922E209711F4BB20C9F10E94C80458
:100C1000811108C0AA94AA20C9F181E090E00E9445
:100C2000ED04F0CF8C171D0611F00CF08C2F9FB740
:100C3000F8948092E9002091E80025FD02C09FBF52
:100C4000E1CF282F30E0C21BD30BF701815020F0F9
:100C500041914093F100FACFE20EF31EBB2021F048
:100C60009092E800B12CEBCF8091E80085FDE7CFB2
:100C70009092E800BB24B394209709F3F3CF5D98DA
:100C800084E680939F01101611063CF081E090E00D
:100C9000F6019383828310E000E0C801DF91CF91D9
:100CA0001F910F91FF90EF90DF90CF90BF90AF908A
:100CB0009F908F900895CF93DF931F92CDB7DEB7AB
:100CC0006983DC01ED91FC910280F381E02D41E02C
:100CD00050E0BE016F5F7F4F09950F90DF91CF917C
:100CE000089583E08093E9008091F200882319F051
:100CF0008AE38093E80008950E94C80490E0089574
:100D0000CF93DF931F92CDB7DEB7FC018485958525
:100D100097FD08C02FEF3FEF358724870F90DF91B5
:100D2000CF910895CE0101960E949E04019719F477
:100D3000898190E0F3CF8FEF9FEFF0CF0F931F9358
:100D4000CF93DF931F92CDB7DEB78C01FC01848572
:100D5000958597FF0BC0CE0101960E949E040197D6
:100D600071F4898190E0F80195878487F801848582
:100D700095850F90DF91CF911F910F9108958FEF7F
:100D80009FEFF1CFFC018485958597FD0BC09FB740
:100D9000F89482E08093E9008091F2009FBF90E098
:100DA000019608959FB7F89482E08093E9008091BE
:100DB000F2009FBF90E0089590E00C94ED048FB195
:100DC0008095807F669B88601C9B8460089580E08E
:100DD0000C94BF0380389105B8F460347105A0F419
:100DE00090E121E061FD24E060FD220F62FD22958B
:100DF000687F969FD0011124A80FA251BC4F0C9080
:100E0000022A40FF02260C920895EF92FF920F9360
:100E10001F93CF93DF937C018B01040F111DEB0116
:100E200077FF02C0D0E0C0E0C8010134110514F022
:100E300080E490E0C817D9073CF441E0BE01C70147
:100E40000E94EA062196F0CFDF91CF911F910F917A
:100E5000FF90EF900895EF92FF920F931F93CF931F
:100E6000DF937C018B01C42FD22F6034710510F405
:100E70000E94CE03B8016D0F711D6150710960347D
:100E8000710520F44C2FC7010E94CE034D2FB801ED
:100E9000C7010E940507C7018C0F911D4D2FB80196
:100EA0000197DF91CF911F910F91FF90EF900C94DC
:100EB00005072F923F924F925F926F927F928F928F
:100EC0009F92AF92BF92CF92DF92EF92FF920F93D9
:100ED0001F93CF93DF9300D000D000D01F92CDB7E7
:100EE000DEB76D30D9F030901A014090D3035090A6
:100EF000D403832D90E09F838E836A3051F5109246
:100F0000D2031092D10323E0880F991F2A95E1F7AD
:100F1000480E591E5092D4034092D30381E090E0D2
:100F200027960FB6F894DEBF0FBECDBFDF91CF91ED
:100F30001F910F91FF90EF90DF90CF90BF90AF90F7
:100F40009F908F907F906F905F904F903F902F90E9
:100F50000895A090D103B090D20395E0699FB001AD
:100F60001124FB01E850FF4F3F016501212CF5E002
:100F70002F1629F1C3010196F301F491F9833C0185
:100F8000420128E02A83898181708D8310E000E08E
:100F90000315D0F4F801EC0DFD1DFC83EB83F12C5F
:100FA000E12CE31470F4B4016E0D7F1D4D818B8133
:100FB0009C810E94EA06FFEFEF1AFF0AF2CF198226
:100FC000DFCF0F5F1F4FE4CF2981269529838A81C8
:100FD00081508A83EE81FF818E0E9F1E8111D3CFB7
:100FE0002394CE0EDF1EF6E02F12C1CFC501329C36
:100FF000800D911D11249093D2038093D1038ECF45
:10100000CF93DF938091CA039091CB0385309105F4
:1010100014F084E090E01816190614F081E090E0D6
:1010200066ED71E021E030E0A8E0B0E0C3E0D0E0A0
:10103000FB0141E050E03183208353834283B58339
:10104000A483D783C683918780873A964B5F5F4F8F
:101050004A31510581F76E5C7F4F265F3F4F253641
:10106000310531F7DF91CF910895089590E080E048
:1010700008954F925F926F927F928F929F92AF925C
:10108000BF92CF92DF92EF92FF92CF93DF93CDB7D3
:10109000DEB728970FB6F894DEBF0FBECDBF2BED9D
:1010A0003FE049E450E40E94CD1A20E030E044E300
:1010B00053E40E9400196B017C010E94FB186983B4
:1010C0007A838B839C83C701B6010E943A1B4B0134
:1010D0005C01C090CE01D090CF01E090D001F090A3
:1010E000D1014090D2015090D3016090D401709012
:1010F000D50129813A814B815C81C701B6010E94EB
:10110000CD1A6D837E838F839887A5019401C301D7
:10111000B2010E94CD1A9B01AC016D817E818F814D
:1011200098850E9417186093CE017093CF01809329
:10113000D0019093D101A5019401C701B6010E948D
:10114000CD1A6B017C0129813A814B815C81C301FD
:10115000B2010E94CD1A9B01AC01C701B6010E94E9
:1011600018186093D2017093D3018093D4019093A7
:10117000D50128960FB6F894DEBF0FBECDBFDF9124
:10118000CF91FF90EF90DF90CF90BF90AF909F9066
:101190008F907F906F905F904F900895FB0101902A
:1011A0000020E9F73197AF01461B570BDC01ED91A9
:1011B000FC910280F381E02D09948F929F92AF926F
:1011C000BF92EF92FF920F931F93CF93DF93CDB710
:1011D000DEB7A1970FB6F894DEBF0FBECDBF7C017E
:1011E000FA01CB0119A2223008F42AE08E010F5D2A
:1011F0001F4F822E912CB12CA12CBF01A50194016F
:101200000E94E617F901CA016A300CF5605DD80149
:101210006E938D01232B242B252B79F790E080E012
:10122000109721F0BD01C7010E94CE08A1960FB60C
:10123000F894DEBF0FBECDBFDF91CF911F910F910C
:10124000FF90EF90BF90AF909F908F900895695C52
:10125000DECF4F925F926F927F928F929F92AF926A
:10126000BF92CF92DF92EF92FF920F931F93CF9393
:101270006B017C01742EAC019B010E948C1B6EE4FF
:1012800071E0811126C046015701E894B7F82FEFAD
:101290003FEF4FE75FE7C501B4010E948C1B81114E
:1012A0000CC02FEF3FEF4FE75FE7C501B4010E948D
:1012B000F61862E571E0181664F02FEF3FEF4FE784
:1012C0005FE4C701B6010E94C01A1816ACF466E5C7
:1012D00071E08EEE97E0CF911F910F91FF90EF900C
:1012E000DF90CF90BF90AF909F908F907F906F9046
:1012F0005F904F900C94CE082FEF3FEF4FE75FECDD
:10130000C701B6010E94F61887FDE1CF20E030E06A
:10131000A901C701B6010E94F61810E000E087FF9E
:101320000AC06DE28EEE97E00E945B068C01F7FA30
:10133000F094F7F8F094C0E060E070E080E09FE3A4
:101340007C1641F020E030E040E251E40E940019B8
:10135000CF5FF6CFA70196010E9418182B013C0120
:101360000E9479194B015C012AE0BC01A4018EEEB8
:1013700097E00E94DD087C01E00EF11ECC23D1F144
:10138000C501B4010E94A8199B01AC01C301B201BF
:101390000E9417184B015C016EE28EEE97E00E94EE
:1013A0005B06E80EF91EC15028F120E030E040E273
:1013B00051E4C501B4010E94CD1A2B013C010E94E9
:1013C00079194B01B12CA12C2AE0B501A4018EEEB4
:1013D00097E00E94DD08E80EF91EC501B4010E94E5
:1013E000A8199B01AC01C301B2010E9417184B015F
:1013F0005C01D9CFC701CF911F910F91FF90EF9062
:10140000DF90CF90BF90AF909F908F907F906F9024
:101410005F904F9008950F920FB68F939F93EF9325
:10142000FF938091D7038D5F8D3708F08D578093A0
:10143000D703E8EDF3E080818E4F808391819F4F49
:10144000918382818F4F828383818F4F8383ECEDE1
:10145000F3E080818F5F808381818F4F81838281E0
:101460008F4F828383818F4F83838FB18F60669983
:101470001C9B88278F3681F48091D603981B963069
:1014800068F0E0E0F8E087E78083818388E180937B
:101490006000F0936000FFCF9093D603FF91EF912F
:1014A0009F918F910FBE0F9018951F920F920FB6BC
:1014B0000F9211248F939F938091E1009091E1000E
:1014C000937F9093E10083FF0FC01092E90091E0B9
:1014D0009093EB001092EC0092E39093ED00109249
:1014E000ED0398E09093F00082FF22C093E0909388
:1014F000E9009091F200992319F09AE39093E800A3
:1015000090919F01992341F090919F019150909368
:101510009F01911101C05D9A9091EC03992341F0D4
:101520009091EC0391509093EC03911101C0289A93
:1015300084FF18C08091E2008E7E81608093E2007B
:101540008091E1008F7E8093E1008091A0018E7EEA
:1015500080618093A0019F918F910F900FBE0F909B
:101560001F90189580FFF7CF8091E2008E7E8061FA
:101570008093E2008091E1008E7E8093E100809173
:10158000A0018E7E8160E5CF1F920F920FB60F9261
:101590001124CF92DF92EF92FF920F931F932F931C
:1015A0003F934F935F936F937F938F939F93AF93EB
:1015B000BF93EF93FF93CF93DF93CDB7DEB76C97D5
:1015C000DEBFCDBF1092E9008091E80083FF25C007
:1015D00068E0CE0145960E949E0582EF8093E80068
:1015E0008D8987FF39C09091E80090FFFCCF982F3C
:1015F000907609F034C19E894F89588D2F89F88CD7
:10160000911131C0803861F58091A1018093F10082
:101610001092F1008EEF8093E8006C960FB6F8946C
:10162000DEBF0FBECDBFDF91CF91FF91EF91BF9194
:10163000AF919F918F917F916F915F914F913F916A
:101640002F911F910F91FF90EF90DF90CF900F900F
:101650000FBE0F901F9018959EEF9093E800C7CF94
:101660001092F100D5CF913059F48111D3CF413090
:10167000510581F68091A1018D7F8093A101CACF90
:10168000933049F48111C6CF4130510519F680914C
:10169000A1018260F2CF953041F48091E80080FF93
:1016A000FCCF20682093E300B5CF963009F0A9C0A5
:1016B0000B8D1C8D22E01092E90010929D0110927A
:1016C0009C01F2122EC010929B0110929A010E946E
:1016D0006D051F8299E09983FA8291E09E8390EADA
:1016E00098879AEF998720919C0130919D01275FFF
:1016F0003F4F3C832B838D831092E90010929D0114
:1017000010929C0110939B0100939A0149E050E0D4
:10171000BE016F5F7F4F80E00E9447050E946D050C
:1017200079CF10939B0100939A010E94D904DC01A8
:1017300012960D911C910115110509F451C1D801A2
:10174000ED91FC910480F581E02DBE016B5E7F4F31
:10175000C8010995009709F03EC1F801008511857F
:10176000EACFF3E0FF120EC08F89882309F440C04E
:10177000823061F440E867E08CE596E00E94F60C68
:10178000811148CF81E28093EB0047CF813029F46B
:1017900040E86BE080E596E0F1CF833099F70E9456
:1017A000D904DC011296ED90FC908E010F5F1F4F63
:1017B0006801E114F10479F0D701ED91FC91068004
:1017C000F781E02DB801C7010995080F111DF70138
:1017D000E084F184EECFD8011C92F6010190002044
:1017E000E9F73197BF016C197D0940E0C601C6CF0A
:1017F0006AE376E0FB01449150E080E80E944705EF
:1018000009CF973009F4BECF983021F481E080935E
:10181000F10000CF993009F0FDCE837009F0B2CF0E
:10182000EAE2F1E081E031E096E32191222371F0D8
:101830008093E9003093EB00DF0111972C91209306
:10184000EC009093ED008F5F873079F78EE78093FF
:10185000EA001092EA008F898093ED03DBCE8B8D36
:101860009C8D1092E90010929D0110929C01909322
:101870009B0180939A01898D811192C08E899D89E7
:10188000913A49F4813209F07DCF47E050E064E0BD
:1018900071E080E0B3CF913209F074CF833269F404
:1018A0008F89988DB0E0A0E08093000190930101B2
:1018B000A0930201B0930301ADCE803269F4809110
:1018C000E80082FFFCCF67E084E091E00E949E0583
:1018D0008BEF8093E8009ECE823209F09BCE8F89F9
:1018E00080930B01EEEFFFE7859194918B3F9C4D28
:1018F00051F1E0E0F8E08091040190910501A091A0
:101900000601B0910701803B9440A105B105F1F4B7
:1019100080910B0180FD1AC0EE3F8AE0F80789F53F
:1019200087E797E7918380838091600080939E0191
:1019300088E19BE00FB6F894A895809360000FBEF5
:101940009093600067CEEEEFFAE0D5CF8081918171
:101950008737974709F05ECEA8958091600088612F
:101960008093600080919E0180936000EE3F2AE0AA
:10197000F20789F08091FE0A9091FF0A918380839B
:1019800049CE808191818737980751F29093FF0A61
:101990008093FE0AC5CF1092FF0A1092FE0A3ACE3B
:1019A0000E94D904DC0112960D911C9101151105BC
:1019B00009F4E8CED801ED91FC910190F081E02D81
:1019C000BE016B5E7F4FC8010995811123CEF801DE
:1019D00000851185EBCF181619060CF41BCED2CE5C
:1019E000F1E0FF12BECE6EE376E004CFEF92FF92FD
:1019F0000F931F93CF93DF93F82E192FE62E042F0A
:101A000081E0860F880F0E94190583E00E94190566
:101A1000CF2DD12FEC0EFD2EF11CCE15DF05B9F028
:101A200007FF13C0FE0184910E941905182F80E062
:101A30000E941905812321968111EFCFDF91CF916B
:101A40001F910F91FF90EF9008958881EDCF81E075
:101A5000F5CFEEEEF7E01382128288EE93E0A0E07D
:101A6000B0E084839583A683B78384E391E0918378
:101A700080838FEF9FEF95878487EEE3F8E01382F2
:101A8000128286E491E0918380830895CDB7DEB71A
:101A90002C97DEBFCDBF789483E084BD83E085BD05
:101AA00081E080936E00E1E8F0E083E08083E0E88D
:101AB00081E08083E1E983E08083E0E981E0808365
:101AC000E1EC87E08083E3EC81E08083E0EC82E07E
:101AD0008083E2EC81E08083EAE787E080838068AE
:101AE00080831092ED031092A1011092A0018091C9
:101AF000D70081608093D70080EA8093D80089B5B1
:101B0000806189BD89B5826089BD09B400FEFDCFC1
:101B100081E090E00E94ED048091D8008F7C80618C
:101B20008093D8008091E000807F8093E0008091D6
:101B3000E1008E7E8093E1008DE08093E200559A73
:101B4000209A8FEF9FEF9093FB078093FA0764E64C
:101B500070E080E090E0AB01FC010E940105415083
:101B60005109E109F10928F068517C4F8F4F9F4FCF
:101B7000F6CFAB01FC010E940105641775078E07C3
:101B80009F07C8F36AE571E08EEE97E00E94CE08E9
:101B900060E671E08EEE97E00E94CE0881EC8093C3
:101BA0007C0081EF85B987EE84B982E38BB982EF3F
:101BB0008AB9769A6E9880EF81BB10BA80E58CBDA9
:101BC00081E08DBD85E00E94DC065F9A85E00E9481
:101BD000DC065C98E4E1F7E085918EBD00000DB471
:101BE00007FEFDCFE132C1F75C9A81E88093640083
:101BF00081E0809365000E94E7060E94DF0687FF70
:101C000015C05C9885EA8EBD00000DB407FEFDCFBF
:101C10005C9A2E982F982D98809164008062809312
:101C2000640081E083BF889513BEFCCF0E94DF066D
:101C300082FF37C02D980E94DF0684788438A1F493
:101C40002D9A88EC0E94DC062F986FEF82E090E0DE
:101C50000E94A21784EF91E00E94ED042F9A0E9447
:101C6000DF0684788438D9F30E94DF0684718431DA
:101C7000A1F42D9A88EC0E94DC062E9860E082E0A8
:101C800090E00E94A21784EF91E00E94ED042E9A4A
:101C90000E94DF0684718431D9F388EC0E94DC064F
:101CA000C5CF2D9A82E090E00E949A178823B1F167
:101CB0003E9A3F9A81E090E00E949A17182F147084
:101CC00081FF0CC011112E9831EF832E99249A9424
:101CD0000E94DF0686FF25C02E9A2F9A82E30E947B
:101CE000DC060E94DF068111F9CF80E180930C01B0
:101CF0008091D0038093CF030E94DF068093D003AE
:101D00002091A401222309F4B0C01092A40180E024
:101D100090E0892BA9F30E940000F2CF3E983F98F3
:101D2000C9CF112331F004E08016910411F42E9AEA
:101D30002F9881E00E94BF03282D2770A22EA401B6
:101D400003E0559547950A95E1F7CA019695982FB6
:101D500088279795879582519C4F70E060E04E3FB1
:101D60003FEF530769F130E020E0DB01AC59B94F98
:101D70007C01E0E8EE0EF11CFD01E20FF31FE4919F
:101D8000F0E03F010A2C02C0660C771C0A94E2F7CF
:101D90004F3F540739F06C01C20ED31EF601B488D0
:101DA000B628B48AAA2039F06701C20ED31EF60104
:101DB00004890729048B2F5F3F4F28353105E1F651
:101DC0004F5F5F4F80589F4F685A7F4F603B710550
:101DD00031F60E94E7068FE00E94DC06FFEF8F1AC3
:101DE0009F0A09E18016910409F072CF112311F0C6
:101DF0002F9A2D9880E991E00E94ED042D9A81E0C0
:101E000090E00E949A1780FF69CF8AE090E00E94DC
:101E10009A179FEF980F9E3F08F060CF22E330E0C3
:101E20003093D2032093D10328E330E03093D403DE
:101E30002093D3032AE030E03A832983682F8EE38E
:101E400098E00E94590789819A8101969A83898333
:101E50000E949A17A981BA81509781F70E94E706DC
:101E600088EE93E00E94ED0439CF9091D8038091E1
:101E7000A501B92FB81B8B2F30910C01B31748F473
:101E80008F5F831708F043CF81E083BF889513BE2F
:101E90003ECF11E01093A4019093A501E2EAF1E096
:101EA00080819181019680839183EEEEF3E0211190
:101EB0002FEF8FEF21932193219321938150D0F71E
:101EC0001092D4031092D3031092D2031092D10334
:101ED0000091D0030B830093CF030E94DF06898318
:101EE0008093D0038091D503813009F446C030F04F
:101EF000853009F478C70E94E70609CF23E030E077
:101F00003093D2032093D10388E090E09093D403E0
:101F10008093D30382E080931A0163E671E08EE33D
:101F200098E00E94CE088091CF0383FDE4CF80919A
:101F3000D00383FFE0CF1093D50383E08093CE03DB
:101F40001092CD031092CC0381E090E09093CB03EC
:101F50008093CA0380911B0190911C0197FD01960B
:101F600095958795919581959109C29690931E01BB
:101F700080931D010E940008BECF0E94DF0685FFEE
:101F800015C080911D0190911E018230910574F061
:101F90002091230130912401821B930B18161906FE
:101FA0000CF065C390931E0180931D010E94DF0613
:101FB00086FF1FC080911D0190911E0120911B0181
:101FC00030911C01AC01420F531F443651058CF473
:101FD0004091230150912401840F951FA901480FBE
:101FE000591F453651050CF045C390931E0180934F
:101FF0001D0180911901811142C360911B017091F3
:102000001C0177FF02C06F5F7F4F759567958091C8
:102010001D0190911E01680F791F61507109072EF3
:10202000000C880B990B0E94AA1960930D01709304
:102030000E0180930F019093100160911F01709128
:10204000200162507109072E000C880B990B0E9429
:10205000AA19609311017093120180931301909358
:1020600014010B8103FD26C0098103FF23C0C0902A
:102070001501D0901601E0901701F09018012EE2A2
:102080003DEB4BE353EBC701B6010E94CD1A6093C1
:10209000CE017093CF018093D0019093D101C09273
:1020A000D201D092D301E092D401F092D50181E027
:1020B0008093190120E030E040E85FE360910D017A
:1020C00070910E0180910F01909110010E94F618FD
:1020D0001816ECF080E090E0A0E8BFE380930D01DB
:1020E00090930E01A0930F01B09310018091CE0147
:1020F0009091CF01A091D001B091D101B0588093BF
:10210000CE019093CF01A093D001B093D10120E0F4
:1021100030E042EC52E460910D0170910E0180912B
:102120000F01909110010E94C01A87FD1DC080E030
:1021300090E0A2ECB2E480930D0190930E01A09385
:102140000F01B09310018091CE019091CF01A09129
:10215000D001B091D101B0588093CE019093CF01BE
:10216000A093D001B093D10120E030E040E85FE3DC
:1021700060911101709112018091130190911401ED
:102180000E94F6181816ECF080E090E0A0E8BFE39B
:102190008093110190931201A0931301B093140145
:1021A0008091D2019091D301A091D401B091D50139
:1021B000B0588093D2019093D301A093D401B093EF
:1021C000D50120E030E04EE852E4609111017091B9
:1021D000120180911301909114010E94C01A87FD91
:1021E0001DC080E090E0AEE8B2E4809311019093CE
:1021F0001201A0931301B09314018091D201909128
:10220000D301A091D401B091D501B0588093D201EF
:102210009093D301A093D401B093D501C090110144
:10222000D0901201E0901301F090140160911F0111
:1022300070912001072E000C880B990B0E94AA199F
:102240004B015C0120E030E040E85FE3C701B601EC
:102250000E941818A50194010E94C01A87FD62C14E
:10226000A5019401C701B6010E94F61818160CF4D6
:1022700059C1C0900D01D0900E01E0900F01F09077
:10228000100120911D0130911E013A832983B9016B
:10229000330F880B990B0E94AA194B015C0120E0B7
:1022A00030E040E050E4C701B6010E941818A501D3
:1022B00094010E94C01A18160CF034C100911B0141
:1022C00010911C0169817A81600F711F072E000C2B
:1022D000880B990B0E94AA199B01AC01C701B6019A
:1022E0000E94F61887FF1EC1A5019401C701B6011F
:1022F0000E94171820E030E048EC52E40E94CD1A0A
:102300006B017C01B801110F880B990B0E94AA196F
:102310009B01AC01C701B6010E9400190E9472190D
:10232000653071050CF000C260E070E088EC91E46B
:102330000E9439088090CE019090CF01A090D001EA
:10234000B090D101C090D201D090D301E090D401DF
:10235000F090D501A5019401C501B4010E94CD1AE8
:102360002B013C01A7019601C701B6010E94CD1ABD
:102370009B01AC01C301B2010E9418180E94481BC6
:102380002B013C01A5019401C701B6010E949718D9
:1023900020E030E044E353E40E94CD1A2BED3FE00F
:1023A00049E450E40E9400196B017C0164E771E08C
:1023B0008EEE97E00E94CE0842E0C701B6010E946F
:1023C000290920E030E040E751E4C701B6010E944E
:1023D000F61887FF0BC020E030E044EB52ECC70159
:1023E000B6010E94C01A18160CF4EAC120E030E0D1
:1023F00045E253E4C701B6010E94C01A18160CF456
:10240000E6C120E030E044EB52ECC701B6010E9487
:10241000F61887FDDCC120E030E044EB52ECC70148
:10242000B6010E94F618882309F4D8C12BED3FE0CD
:1024300049E450E4C701B6010E94CD1A20E030E023
:1024400044E353E40E9400194B015C010E94FB1815
:102450009B01AC01C301B2010E94CD1A6B017C014A
:10246000C092CE01D092CF01E092D001F092D10182
:10247000C501B4010E943A1B9B01AC01C301B2012A
:102480000E94CD1A6093D2017093D3018093D4013E
:102490009093D501A70196010E9497186B017C01CA
:1024A0006FE871E08EEE97E00E94CE0820E030E009
:1024B00044E353E4C701B6010E94CD1A2BED3FE07F
:1024C00049E450E40E94001942E00E94290960E6B4
:1024D00071E08EEE97E00E94CE0860911F0170912E
:1024E000200162507109072E000C880B990B0E9485
:1024F000AA196093110170931201809313019093B4
:1025000014018091D2019091D301A091D401B09196
:10251000D501B0588093D2019093D301A093D401F8
:10252000B093D5012AE444E670E060E090E080E0FA
:102530000E942B07C0901101D0901201E09013016E
:10254000F090140120E030E0A901C701B6010E941B
:10255000C01A20E030E040E05FE387FD46C1C701DC
:10256000B6010E9418180E9472197A836983C0907C
:102570000D01D0900E01E0900F01F090100120E0CD
:1025800030E0A901C701B6010E94C01A20E030E086
:1025900040E05FE387FD2EC1C701B6010E94181815
:1025A0000E947219CB0122E042E069817A810E9487
:1025B0002B0760911F017091200120912101409112
:1025C0001B0180911D0190911E010E942B0781E04B
:1025D00080931A0186E690E09093D2038093D10312
:1025E0001092D4031092D30365E971E08EE398E072
:1025F0000E94CE08A6E6B0E0B093D203A093D10328
:1026000088E090E09093D4038093D303C090CC03F0
:10261000D090CD030D2C000CEE08FF082AE0B70186
:10262000A601F7FE0DC06DE28EE398E00E94590707
:1026300044275527BA014C195D096E097F092AE024
:102640008EE398E00E94DD08E091CE03E150E8308F
:1026500008F005C1F0E0E15DFC4E0C94BA1B2914B2
:1026600023141D14171411140B140514FF1381E007
:1026700090E098CC84E690E0821B930BB6CC20913E
:10268000CE013091CF014091D0015091D1016091A4
:102690000D0170910E0180910F01909110010E9427
:1026A000181860930D0170930E0180930F019093A1
:1026B00010012091D2013091D3014091D401509169
:1026C000D5016091110170911201809113019091D7
:1026D00014010E94181860931101709312018093E5
:1026E00013019093140120E030E04CE852E40E9482
:1026F000C01A18160CF0DECC6CE671E08EEE97E096
:102700000E94CE0860E671E08EEE97E00E94CE084F
:10271000109219018091CE0381508093CE038111D4
:10272000C9CC1092D503C6CC6A3071052CF460E098
:1027300070E080EA91E4FCCD643171052CF460E036
:1027400070E080E791E4F4CD6E3171052CF460E027
:1027500070E080E291E4ECCD683271052CF460E029
:1027600070E080EA90E4E4CD6C33710524F460E01D
:1027700070E0CB01DDCD663471052CF460E070E0D3
:1027800080EA90ECD5CD603571052CF460E070E006
:1027900080E291ECCDCD6A3571052CF460E070E0FB
:1027A00080E791ECC5CD6F3571052CF460E070E0E9
:1027B00080EA91ECBDCD60E070E088EC91ECB8CDA2
:1027C000C12CD12CF0E7EF2EF1E4FF2E2FCEC12C3F
:1027D000D12CE5E2EE2EE3E4FE2E28CEC12CD12C46
:1027E00074EBE72E72E4F72E21CEC701B6010E94EA
:1027F0001718B9CEC701B6010E941718D1CE6AE1E9
:1028000070E088E790E00E9405046AE170E082E7EA
:1028100090E00E9405046AE170E08CE690E00E947E
:1028200005046AE170E086E690E00E94050464E138
:1028300070E088E790E00E94050464E170E082E7C0
:1028400090E00E94050464E170E08CE690E00E9454
:10285000050464E170E086E690E00E940504E6ED80
:10286000F1E0FC83EB835AEC652E53E0752E1F01DB
:1028700064E0862E912C3A822982F12CE12CA981E8
:10288000BA8118968D919C911997059724F0199605
:102890009C928E921897E981FA8180859185823089
:1028A000910509F4FEC10CF0C5C1019709F40FC2EE
:1028B000FFEFEF1AFF0A29813A81265F3F4F3A83E3
:1028C000298335E0E316F104D1F682E3280E311CAA
:1028D0006214730481F6A6EDB1E0BA83A983E9819D
:1028E000FA81FC87EB8718861F82AB85BC8518961A
:1028F0008D919C911997181619060CF080C1C09003
:102900001101D0901201E0901301F0901401129681
:102910000D911C9120E030E040E85FE3C701B60173
:102920000E9418184B015C01B801012E000C880BA5
:10293000990B0E94AA199B01AC01C501B4010E9428
:10294000C01A87FD5CC1EB85FC8566817781600FCD
:10295000711F072E000C880B990B0E94AA199B016E
:10296000AC01C701B6010E94F61818160CF447C155
:10297000C0900D01D0900E01E0900F01F090100179
:10298000AB85BC850D911C9120E030E040E050E427
:10299000C701B6010E9418184B015C01B801012E55
:1029A000000C880B990B0E94AA199B01AC01C50170
:1029B000B4010E94C01A18160CF021C1EB85FC85E9
:1029C00064817581600F711F072E000C880B990BB5
:1029D0000E94AA199B01AC01C701B6010E94F6181A
:1029E00087FF0DC10E94421724E630E040E050E02E
:1029F0000E94B4179B01285231092B30310508F48D
:102A000071C151E040E0225E3F4F2B30310508F0AC
:102A100050E0252F342F665471096B30710508F48E
:102A200064C12115310509F062C1EB85FC85808503
:102A300091859C01215031093E832D833187208768
:102A40008091CC039091CD039A87898701969093CA
:102A5000CD038093CC038090110190901201A0903F
:102A60001301B0901401E280F38020E030E040E8F0
:102A70005FE3C501B4010E9418182B013C01B701A6
:102A80000F2C000C880B990B0E94AA199B01AC011A
:102A9000C301B2010E9417182B013C0120E030E075
:102AA00048EC52E40E94F61804E610E087FF05C0E7
:102AB000C301B2010E9472198B01AB85BC851696C9
:102AC0006D917C916E0D7F1D072E000C880B990B6C
:102AD0000E94AA19A50194010E9417186B017C019C
:102AE000B801012E000C880B990B0E94AA199B01BA
:102AF000AC01C701B6010E94F61887FF05C0C701E7
:102B0000B6010E9472198B0180900D0190900E0108
:102B1000A0900F01B0901001EB85FC85E080F18062
:102B200020E030E040E050E4C501B4010E941818F4
:102B30002B013C01B7010F2C000C880B990B0E9454
:102B4000AA199B01AC01C301B2010E9417182B0105
:102B50003C01B801012E000C880B990B0E94AA19A8
:102B60009B01AC01C301B2010E94F618D12C87FF72
:102B700007C0C301B2010E9472198B01DD24D394F6
:102B8000AB85BC8514966D917C916E0D7F1D072ED3
:102B9000000C880B990B0E94AA19A50194010E94B0
:102BA00017184B015C01B801110F880B990B0E949B
:102BB000AA199B01AC01C501B4010E94F61887FD5A
:102BC000BBC0D110B9C08091D2019091D301A09126
:102BD000D401B091D501B0588093D2019093D30124
:102BE000A093D401B093D501ED81FE81EF2B39F490
:102BF00089859A8505969093CD038093CC032F8188
:102C000038852F5F3F4F38872F838B859C850A96A9
:102C10009C878B872530310509F067CEA981BA8161
:102C2000D296BA83A9832A163B0609F058CE48E902
:102C300053E09CC08330910501F1049709F038CE30
:102C4000A981BA8116965C9016971496CC90149729
:102C50001296AD90BC9013970D911C91C00ED12E81
:102C6000D11C0C151D050CF023CE452DB501C80156
:102C70000E9405070F5F1F4FF4CFE981FA8102819F
:102C800013810F5F1F4FC080D18041E0B801C601A2
:102C900003960E94EA0641E0B801C60104960E942C
:102CA000EA06A981BA8112960D911C9113970F5FC4
:102CB0001F4FCD90DC9041E0B801C60102960E9402
:102CC000EA0641E0B801C60105960E94EA06E981DC
:102CD000FA816281738126814481808191810E9481
:102CE0002B07E6CD22E030E096CE23E030E0E6EAA6
:102CF000F1E090E080E046815781452BB9F443E054
:102D0000880F991F4A95E1F7FC01EA55FE4F37837A
:102D10002683AB85BC858D919C911197918380838F
:102D200012968D919C91938382837FCE01963896E3
:102D30008530910501F779CE8091CE019091CF0138
:102D4000A091D001B091D101B0588093CE01909361
:102D5000CF01A093D001B093D10146CFEB81FC818C
:102D6000F296FC83EB83019709F0C5C8EB81FC81E7
:102D700090E080E004C03A96161617068CF1608544
:102D80007185019685309105B1F731E020E0161686
:102D900017060CF430E0832F922F2B813C814217D1
:102DA0005307E1F6019709F0A6C820E030E040EFB4
:102DB00051E4609111017091120180911301909181
:102DC00014010E94C01A18160CF095C88091CA030D
:102DD0009091CB0301969093CB038093CA03CAC80A
:102DE00090E080E0DACF1092D50385C88F929F9251
:102DF000AF92BF92CF92DF92EF92FF92CF93DF9389
:102E0000EC01688179818A819B8161157105810559
:102E1000910521F464E279ED8BE597E02DE133EF44
:102E200041E050E00E94B41749015A019B01AC01F6
:102E3000A7EAB1E40E94D3176B017C01ACEEB4EFBA
:102E4000A50194010E94E117C60ED71EE81EF91EC7
:102E5000F7FE06C081E0C81AD108E10880E8F80A48
:102E6000C882D982EA82FB82C701B6019F77DF91CF
:102E7000CF91FF90EF90DF90CF90BF90AF909F9059
:102E80008F9008958F929F92AF92BF92CF92DF92D0
:102E9000EF92FF92609125017091260180912701A8
:102EA00090912801611571058105910521F464E275
:102EB00079ED8BE597E02DE133EF41E050E00E94A2
:102EC000B41749015A019B01AC01A7EAB1E40E9481
:102ED000D3176B017C01ACEEB4EFA50194010E9405
:102EE000E117C60ED71EE81EF91EF7FE06C081E0E8
:102EF000C81AD108E10880E8F80AC0922501D092EA
:102F00002601E0922701F0922801C701B6019F77C0
:102F1000FF90EF90DF90CF90BF90AF909F908F90F9
:102F20000895609325017093260180932701909363
:102F300028010895F999FECF92BD81BDF89A99278D
:102F400080B50895262FF999FECF92BD81BDF89ADC
:102F5000019700B4021639F01FBA20BD0FB6F894DD
:102F6000FA9AF99A0FBE0895052E97FB1EF4009465
:102F70000E94CB1757FD07D00E94E61707FC03D02D
:102F80004EF40C94CB1750954095309521953F4FBA
:102F90004F4F5F4F089590958095709561957F4F45
:102FA0008F4F9F4F08950E940818A59F900DB49FC2
:102FB000900DA49F800D911D11240895B7FF0C94CE
:102FC000D3170E94D317821B930B0895A1E21A2EE8
:102FD000AA1BBB1BFD010DC0AA1FBB1FEE1FFF1FBD
:102FE000A217B307E407F50720F0A21BB30BE40B0D
:102FF000F50B661F771F881F991F1A9469F7609554
:103000007095809590959B01AC01BD01CF0108950D
:10301000A29FB001B39FC001A39F700D811D112419
:10302000911DB29F700D811D1124911D089550585E
:10303000BB27AA270E942F180C94721A0E94391AD3
:1030400038F00E94401A20F039F49F3F19F426F41A
:103050000C940F1A0EF4E095E7FB0C94091AE92F73
:103060000E94971A58F3BA176207730784079507E7
:1030700020F079F4A6F50C94B91A0EF4E0950B2E15
:10308000BA2FA02D0B01B90190010C01CA01A001BA
:103090001124FF27591B99F0593F50F4503E68F115
:1030A0001A16F040A22F232F342F4427585FF3CF56
:1030B000469537952795A795F0405395C9F77EF427
:1030C0001F16BA0B620B730B840BBAF09150A1F070
:1030D000FF0FBB1F661F771F881FC2F70EC0BA0FF6
:1030E000621F731F841F48F4879577956795B7957E
:1030F000F7959E3F08F0B0CF9395880F08F0992779
:10310000EE0F9795879508950E94391A60F080E830
:1031100091E009F49EEF0E94401A28F040E851E047
:1031200071F45EEF0CC00C940F1A0C94B91AE92FCD
:10313000E0780E94971A40F3092E052AB1F326176A
:1031400037074807590738F00E2E07F8E02569F0D1
:10315000E025E0640AC0EF6307F8009407FADB019A
:10316000B9019D01DC01CA01AD01EF930E9417195D
:103170000E94721A0E94C7185F91552339F02BEDF7
:103180003FE049E450FD49EC0C9418180895DF9392
:10319000DD27B92FBF7740E85FE31616170648070B
:1031A0005B0718F4D92F0E94C51A9F938F937F93C2
:1031B0006F930E94881BECEAF0E00E94121A0E94B2
:1031C000721A2F913F914F915F910E94E01ADD2377
:1031D00051F09058A2EA2AED3FE049EC5FE3D07845
:1031E0005D270E942F18DF910C94721A0E94E51936
:1031F00008F481E008950E94491AE3950C94831A1B
:103200000E9414190C94721A0E94401A58F00E94DD
:10321000391A40F029F45F3F29F00C94091A511132
:103220000C94BA1A0C940F1A0E94971A68F39923F7
:10323000B1F3552391F3951B550BBB27AA276217B2
:103240007307840738F09F5F5F4F220F331F441FBF
:10325000AA1FA9F335D00E2E3AF0E0E832D09150F3
:103260005040E695001CCAF72BD0FE2F29D0660FE0
:10327000771F881FBB1F261737074807AB07B0E823
:1032800009F0BB0B802DBF01FF2793585F4F3AF029
:103290009E3F510578F00C94091A0C94BA1A5F3FBE
:1032A000E4F3983ED4F3869577956795B795F795AF
:1032B0009F5FC9F7880F911D9695879597F9089597
:1032C000E1E0660F771F881FBB1F62177307840733
:1032D000BA0720F0621B730B840BBA0BEE1F88F742
:1032E000E09508950E9479196894B1110C94BA1A66
:1032F00008950E949F1A88F09F5798F0B92F992738
:10330000B751B0F0E1F0660F771F881F991F1AF0D0
:10331000BA95C9F714C0B13091F00E94B91AB1E062
:1033200008950C94B91A672F782F8827B85F39F061
:10333000B93FCCF3869577956795B395D9F73EF469
:1033400090958095709561957F4F8F4F9F4F089511
:10335000E89409C097FB3EF490958095709561952F
:103360007F4F8F4F9F4F9923A9F0F92F96E9BB27E5
:103370009395F695879577956795B795F111F8CF61
:10338000FAF4BB0F11F460FF1BC06F5F7F4F8F4FCC
:103390009F4F16C0882311F096E911C0772321F0C2
:1033A0009EE8872F762F05C0662371F096E8862F5A
:1033B00070E060E02AF09A95660F771F881FDAF7B1
:1033C000880F9695879597F90895990F0008550FDE
:1033D000AA0BE0E8FEEF16161706E807F907C0F09B
:1033E00012161306E407F50798F0621B730B840BA3
:1033F000950B39F40A2661F0232B242B252B21F47D
:1034000008950A2609F4A140A6958FEF811D811D1C
:10341000089597F99F6780E870E060E008959FEF56
:1034200080EC0895DF93CF931F930F93FF92EF9259
:10343000DF927B018C01689406C0DA2EEF010E94B6
:10344000E01AFE01E894A591259135914591559199
:10345000A6F3EF010E942F18FE019701A801DA944C
:1034600069F7DF90EF90FF900F911F91CF91DF915F
:10347000089500240A9416161706180609060895DA
:1034800000240A94121613061406050608950C94D7
:103490000F1A0E949F1AD8F3E894E0E0BB279F57C9
:1034A000F0F02AED3FE049EC06C0EE0FBB0F661FBF
:1034B000771F881F28F0B23A62077307840728F045
:1034C000B25A620B730B840BE3959A9572F78038AE
:1034D00030F49A95BB0F661F771F881FD2F790486C
:1034E0000C94931B092E0394000C11F4882352F0C2
:1034F000BB0F40F4BF2B11F460FF04C06F5F7F4F20
:103500008F4F9F4F0895EF93E0FF07C0A2EA2AED87
:103510003FE049EC5FEB0E942F180E94721A0F9057
:10352000039401FC9058E9EDF0E00C94A61B57FDC4
:103530009058440F551F59F05F3F71F04795880F21
:1035400097FB991F61F09F3F79F0879508951216B8
:1035500013061406551FF2CF4695F1DF08C0161664
:1035600017061806991FF1CF869571056105089415
:103570000895E894BB2766277727CB0197F908952C
:103580000E94E51908F48FEF08959B01AC0160E0FB
:1035900070E080E89FE30C9400190E94E01A0C94FC
:1035A000721A0E94391A38F00E94401A20F09523AE
:1035B00011F00C94091A0C940F1A11240C94BA1AD5
:1035C0000E94971A70F3959FC1F3950F50E0551F15
:1035D000629FF001729FBB27F00DB11D639FAA2768
:1035E000F00DB11DAA1F649F6627B00DA11D661FB7
:1035F000829F2227B00DA11D621F739FB00DA11DD8
:10360000621F839FA00D611D221F749F3327A00D91
:10361000611D231F849F600D211D822F762F6A2F2D
:1036200011249F5750409AF0F1F088234AF0EE0F92
:10363000FF1FBB1F661F771F881F91505040A9F7BF
:103640009E3F510580F00C94091A0C94BA1A5F3F02
:10365000E4F3983ED4F3869577956795B795F795FB
:10366000E7959F5FC1F7FE2B880F911D9695879573
:1036700097F908959F930E94491A0F9007FCEE5FF7
:103680000C94831A19F416F40C940F1A0C94911BD1
:103690000E949F1AB8F39923C9F3B6F39F57550BAD
:1036A00087FF0E949F1B0024A0E640EA90018058FB
:1036B0005695979528F4805C660F771F881F20F039
:1036C00026173707480730F4621B730B840B202939
:1036D00031294A2BA69517940794202531254A278E
:1036E00058F7660F771F881F20F0261737074807FF
:1036F00030F4620B730B840B200D311D411DA0951E
:1037000081F7B901842F9158880F96958795089570
:103710009B01AC010C94CD1A0E94E519880B990B02
:1037200008959F3F31F0915020F4879577956795E4
:10373000B795880F911D9695879597F908959150A3
:103740005040660F771F881FD2F708959F938F937D
:103750007F936F93FF93EF939B01AC010E94CD1A6F
:10376000EF91FF910E94121A2F913F914F915F911B
:103770000C94CD1AEE0FFF1F0590F491E02D0994E3
:04378000F894FFCFEB
:10378400FFFFFFFF00E10000000000001000007CCC
:1037940042000068420000803F0001140036003EF1
:1037A40000020001000100000000C180810000004F
:1037B400000000005B06D8057C067106C206800680
:1037C4009E06000000005907AB05360835086E61F7
:1037D4006E00696E66006F766600537461727400E1
:1037E4000D0A0041726B616E6F696400536B7563FF
:1037F400686121004BC485742070727A6564206FFF
:103804006772616E69637A656E69656D3A2000203E
:0A381400706F3A2000506B743A0008
:00000001FF
